:1000000049C0B8C163C062C061C060C05FC05EC0AB
:100010005DC05CC05BC05AC059C058C057C056C014
:1000200055C054C053C009021900010100A02509A0
:1000300004000001000000000705810308000A1207
:10004000011001FF000008030430C609010102008D
:100050000124034C00430044003200550053004289
:1000600000200049006E00740065007200660061A7
:1000700000630065001A03540069006C006C0020E6
:10008000004800610072006200610075006D0004AC
:100090000309040011241FBECFE5D4E0DEBFCDBFAD
:1000A00010E0A0E6B0E0E2EBFAE003C0C8953196BC
:1000B0000D92A038B107D1F720E0A0E8B0E001C070
:1000C0001D92AC3BB207E1F78DD4F1C499CFCF9329
:1000D000C62F2091910024FF18C03091920028E88B
:1000E0002327209392002C2FFC01A3E9B0E08191FB
:1000F0008D9321501216DCF36C2F83E990E036D1FA
:10010000CC5FC0939100CF9108952AE52093910090
:10011000EACFCF93DF938091A200835087FD07C081
:1001200090919E009D3209F448C01092A2008091E7
:10013000610084FF35C0609160006F3F89F16930D4
:1001400008F46AC06850609360009091860088E867
:10015000892780938600CCE068E02091A000309150
:10016000A1008091800086FF6AC0A7E8B0E0F90195
:10017000862F94919D9331968150D9F78FEF860FFA
:1001800090E00196280F391F3093A1002093A00022
:1001900087E890E0EBD0CC3009F04DC0C09361000F
:1001A00094E183B3837031F49150D9F71092A30096
:1001B00010929D00DF91CF910895883009F0B5CF5E
:1001C00080919F00CCE0D0E0C81BD109CA55DF4F19
:1001D00083EC809386008AE5809361001092800012
:1001E00088818076A9F59A8110928F00898181118A
:1001F00035C0109290002FE830E082E03093A100EB
:100200002093A0009F81911104C09E81981708F44B
:10021000892F8093600089CF1092600090918600B2
:1002200088E8892780938600611115C060E087E81F
:1002300090E09CD0C4E08FEF80936000AFCFD901F5
:10024000E7E8F0E0862F9D9191938150E1F796CFFA
:10025000CE0114D2D7CFC4E0C60F7FCF853079F05E
:100260008630B9F0883089F0893049F18A3009F454
:1002700043C08B30D1F12FE830E080E0BFCF9093C6
:10028000A3002FE830E080E0B9CF25EA30E081E03C
:10029000B5CF8B81813009F18230B9F0833029F0FC
:1002A00080E090E490938000ADCF911129C08FE859
:1002B00090E09093A1008093A00084E0F2CF90930F
:1002C000A5002FE830E080E099CF86E290E090939F
:1002D000A1008093A00089E1E4CF8FE390E09093A8
:1002E000A1008093A00082E1DCCF8BE48093920098
:1002F0002FE830E080E082CF2FE830E081E07ECF51
:10030000913051F0923061F681E590E09093A10038
:100310008093A00084E2C5CF85E790E09093A10090
:100320008093A0008AE1BDCF85B7836085BF8BB77E
:1003300080648BBFE1E9F0E08BE481838AE5808310
:100340000895A82FB92F80E090E041E050EA609531
:1003500030E009C02D9182279795879510F084276A
:100360009527305EC8F36F5FA8F30895EADF8D9399
:100370009D930895CF93CFB7CF93C395989BE9F7FB
:10038000989B09C0989B07C0989B05C0989B03C089
:10039000989B01C0A3C0DF93C0919F00DD27CA5581
:1003A000DF4F989B02C0DF91EBCF2F930F931F93EA
:1003B00003B32FEF00FB20F94F933F9313B34FEF9D
:1003C000012700FB21F93BE031C04E7F012F13B321
:1003D000216028C0102F4D7F2260000003B329C088
:1003E0004B7F2460012F000013B32BC013B3477F52
:1003F00028602AC04F7E03B320612CC04F7D13B309
:1004000020622FC04F7B03B3206432C0422703B366
:1004100049934FEF0000102710FB20F913B313701E
:10042000C9F1297F91F2012700FB21F903B3237F52
:1004300089F2315058F1102710FB22F913B3277EAF
:1004400079F2012700FB23F92F7C81F203B31027F7
:1004500010FB24F92F7971F200C013B3012700FBC0
:1004600025F92F7359F200C003B3102710FB26F9AA
:10047000223040F200C013B3012700FB27F92430DB
:1004800028F64F77206813B30000F9CF10E41ABFA5
:10049000002719C03B503195C31BD04010E41ABF50
:1004A0000881033CF9F00B34E9F020919D0019819B
:1004B000110F1213EDCF4A81441F093641F10D325D
:1004C00011F0013E29F70093A4003F914F911F9135
:1004D0000F912F91DF91CAB7C6FD4FCFCF91CFBFFC
:1004E000CF9118952091A400222379F31091A200B6
:1004F000112369F534306AF13093A20020939E00F5
:1005000010919F003BE0311B30939F0022C000916F
:10051000A2000130E4F40AE54F7049F43091610023
:1005200034FD19C000936100C6E8D0E018C03091D6
:10053000910034FD10C000939100C2E9D0E00FC0DB
:100540002795A8F45150A9F4220F0000F9CF4AE5ED
:1005500003C042ED01C0432FC4E1D0E032E014B348
:100560001360A89A14BB05B320E413E05F9301273E
:1005700056E005BB279520F4515021F4220FF9CF06
:10058000012756E000003B5A05BBD0F2279528F41E
:10059000515029F4220F0000F9CF012756E027958A
:1005A00005BB20F4515021F4220FF9CF012756E06A
:1005B0002991332305BB21F60C7F1091A300110F65
:1005C000C651D04005BB11F010939D0010E41ABF36
:1005D000016014B31C7F402F4C7F5F9100C000C0AE
:1005E00005BB14BB45BB71CF82E090E04BD2823497
:1005F00061F062E482E090E04DD26FEF81E090E044
:1006000049D26FEF80E090E045D287B3866087BB28
:1006100081EE8FBD89E08EBD89B7837C89BF81E083
:1006200090E030D290E09BBD8ABD80E090E02AD27D
:1006300090E099BD88BD0895CF93C82F81E090E0E8
:1006400021D28C1721F06C2F81E090E023D28C2FE7
:1006500090E09BBD8ABDCF910895CF93C82F80E0D5
:1006600090E010D28C1721F06C2F80E090E012D235
:100670008C2F90E099BD88BDCF910895FF920F9384
:100680001F93CF93DF93EC0182E890E09093A10059
:100690008093A0009981292F2370392F36953695A4
:1006A00036953370929596959770923009F447C0BD
:1006B000F8F49923B9F19130A1F4F0908100F3227C
:1006C00081F08E010E5F1F4F30E02D5F3F4FC20F54
:1006D000D31FF80161918F018F2DE0D0C017D10792
:1006E000C1F780E0DF91CF911F910F91FF900895A6
:1006F000933081F09430A9F7313009F441C0C0F152
:10070000323079F7809181008093820010928300CB
:1007100082E0E8CF332341F1313019F78A819DDF40
:1007200080E0E0CF8A81809382008B818093830078
:1007300082E0DF91CF911F910F91FF900895F0908B
:100740008100F32271F28E010E5F1F4F30E02D5FAA
:100750003F4FC20FD31FF80161918F018F2DAFD092
:100760000C171D07C1F7BDCF8A8166DF80E0BACFC5
:1007700081E08093820089E08093830082E0B2CFA1
:1007800083B382958695877038273170B09908C0F9
:1007900082E0382B309382001092830082E0A2CF57
:1007A00080E0F7CF282F217080FDAB9A982F9270B0
:1007B00081FDAC9A00C02111AB989111AC980895BD
:1007C0000F931F93CF93DF931F92CDB7DEB7082F00
:1007D000411120C09398AA9881B3806F81BB82B3E6
:1007E000182F1F70862F807F812B82BB802F6983FB
:1007F000D9DF698180E1689FB0011124612B62BB60
:10080000802FD0DF106F12BB0F90DF91CF911F911F
:100810000F910895939ADFCF9398AA9A91B39F70FE
:1008200091BB92B3906F92BB382F317080FDAB9A21
:10083000282F227081FDAC9A00C080B3982F907F42
:100840003111AB982111AC9800C03111AB9A211134
:10085000AC9A00C080B382958F70892B3111AB9810
:100860002111AC980895CF93DF93D82FD170C82F62
:10087000C27006C0CC2379F082E0CEDF87FF0BC0C8
:10088000DD23C1F381E0C8DF87FFF4CFCC23C1F3C0
:1008900082E0C2DFF5CFDF91CF9108951F93CF9310
:1008A000DF931F92CDB7DEB7182F6983DCDF40E0FE
:1008B0006981812F0F90DF91CF911F9181CF1F937D
:1008C000CF93DF931F92CDB7DEB7182F6983CBDFAD
:1008D00041E06981812F0F90DF91CF911F9170CFFF
:1008E000CF93C82FC0DF40E061E08C2FCF9168CF5D
:1008F0000F931F93CF93DF93D82FFB01C081CC239D
:1009000071F08B010F5F1F4F8D2FADDF41E06C2F1A
:100910008D2F56DFF801C1918F01C111F5CFDF9105
:10092000CF911F910F9108950F931F93CF93C82FCD
:1009300081B3806F81BB8B9AA29AA39AA49A80E814
:100940009BEB0197F1F782B38F70806382BB8C2F92
:1009500029DF80E89AE30197F1F78C2F23DF00EC81
:1009600010E0C8010197F1F78C2F1CDFC801019737
:10097000F1F791988C2F16DFC8010197F1F78C2FB2
:100980004BDF87FD2AC08C2F6EDF40E068E28C2FA2
:1009900017DFC8010197F1F78C2F3EDF87FD1DC0DF
:1009A0008C2F61DF40E068E08C2F0ADF8C2F5BDF4B
:1009B00040E061E08C2F04DF8C2F55DF40E066E0E3
:1009C0008C2FFEDE8C2F4FDF40E06CE08C2FF8DEAA
:1009D00081E0CF911F910F91089580E0CF911F91F9
:1009E0000F9108959EE088E10FB6F894A89581BD17
:1009F0000FBE91BD88EF81BB12BA15BA8FEF84BBD1
:100A000080E49CE90197F1F78CEF84BB8DDCECDD91
:100A1000A598AD9AB898C09A81E086DF882329F01E
:100A20008091810081608093810082E07DDF882356
:100A300081F08091810082608093810080FD0DC0F3
:100A400081FD13C083708330C9F07894A89561DB71
:100A5000FDCF8091810080FFF3CF62E670E081E0FE
:100A600047DF8091810081FFEDCF60E770E082E099
:100A70003FDF809181008370833039F769E770E050
:100A800037DFE3CFE199FECF9FBB8EBBE09A99277A
:100A90008DB30895262FE199FECF9FBB8EBB2DBB52
:100AA0000FB6F894E29AE19A0FBE01960895F89471
:020AB000FFCF76
:100AB200FF5A4C4344325553422056312E303900AE
:100AC200326E64206374726C0020626F746821005D
:00000001FF
